{
	"data": {
		"bytecode": {
			"linkReferences": {},
			"object": "6080604052600380546001600160401b03191660011790553480156021575f80fd5b50604051611381380380611381833981016040819052603e916081565b5f80546001600160a01b0319166001600160a01b039290921691909117905560038054600160401b600160e01b03191633680100000000000000000217905560ac565b5f602082840312156090575f80fd5b81516001600160a01b038116811460a5575f80fd5b9392505050565b6112c8806100b95f395ff3fe608060405260043610610054575f3560e01c806311e34bd914610058578063476343ee1461008d5780635e94a67f146100a3578063658f1b5b146100c257806387bfcb04146100d5578063bbdf32eb146100e9575b5f80fd5b348015610063575f80fd5b50610077610072366004610c1a565b610108565b6040516100849190610c6a565b60405180910390f35b348015610098575f80fd5b506100a16102cc565b005b3480156100ae575f80fd5b506100a16100bd366004610d4c565b6103ad565b6100a16100d0366004610dde565b610726565b3480156100e0575f80fd5b506100a1610a60565b3480156100f4575f80fd5b506100a1610103366004610df9565b610b41565b6040805160c0810182525f8082526060602083018190529282018390529181018290526080810182905260a08101919091526001600160a01b0382165f90815260016020818152604092839020835160c0810190945280546001600160401b0316845291820180549184019161017d90610e12565b80601f01602080910402602001604051908101604052809291908181526020018280546101a990610e12565b80156101f45780601f106101cb576101008083540402835291602001916101f4565b820191905f5260205f20905b8154815290600101906020018083116101d757829003601f168201915b5050505050815260200160028201805461020d90610e12565b80601f016020809104026020016040519081016040528092919081815260200182805461023990610e12565b80156102845780601f1061025b57610100808354040283529160200191610284565b820191905f5260205f20905b81548152906001019060200180831161026757829003601f168201915b5050509183525050600391909101546001600160a01b0381166020830152600160a01b810463ffffffff166040830152600160c01b900460ff16151560609091015292915050565b600354600160401b90046001600160a01b031633146102fe576040516360592b5d60e11b815260040160405180910390fd5b6003546040515f91600160401b90046001600160a01b03169047908381818185875af1925050503d805f811461034f576040519150601f19603f3d011682016040523d82523d5f602084013e610354565b606091505b505090508061037657604051631e5b5db560e31b815260040160405180910390fd5b6040513381527fcfd79812bbb20990fff601f865baaefe46e8bcf55c71f8f23278d104b9def366906020015b60405180910390a150565b5f8054604051630f64e30b60e41b81523360048201526001600160a01b039091169063f64e30b0906024015f60405180830381865afa1580156103f2573d5f803e3d5ffd5b505050506040513d5f823e601f3d908101601f191682016040526104199190810190610f34565b60e08101519091506001600160a01b0316610446576040516219179d60e71b815260040160405180910390fd5b335f908152600160205260409020600301546001600160a01b03161561047f57604051634ea5021760e01b815260040160405180910390fd5b6040805160c0810182526003546001600160401b0316815281516020601f89018190048102820181019093528781525f9280830191908a908a90819084018382808284375f92019190915250505090825250604080516020601f8901819004810282018101909252878152918101919088908890819084018382808284375f920182905250938552505033602080850182905263ffffffff89166040808701919091526001606090960186905291845284815292208451815467ffffffffffffffff19166001600160401b03909116178155918401519394508493919283019161056a9150826110f2565b506040820151600282019061057f90826110f2565b50606082015160039182018054608085015160a0909501511515600160c01b0260ff60c01b1963ffffffff909616600160a01b026001600160c01b03199092166001600160a01b0390941693909317179390931617909155546001600160401b039081165f90815260026020908152604090912083518154931667ffffffffffffffff19909316929092178255820151829190600182019061062190826110f2565b506040820151600282019061063690826110f2565b50606082015160039182018054608085015160a0909501511515600160c01b0260ff60c01b1963ffffffff909616600160a01b026001600160c01b03199092166001600160a01b0390941693909317179390931617909155546040517f68faae89d914c394316c516d04d42cf4125c504bdb1e64c21cbcb5b57d2b4038916106d8916001600160401b03909116908a908a908a908a9033908b906001906111d4565b60405180910390a1600380546001600160401b0316905f6106f88361124f565b91906101000a8154816001600160401b0302191690836001600160401b031602179055505050505050505050565b6003546001600160401b03908116908216111561075657604051632664794360e01b815260040160405180910390fd5b6001600160401b038082165f908152600260209081526040808320815160c081019092528054909416815260018401805493949193919284019161079990610e12565b80601f01602080910402602001604051908101604052809291908181526020018280546107c590610e12565b80156108105780601f106107e757610100808354040283529160200191610810565b820191905f5260205f20905b8154815290600101906020018083116107f357829003601f168201915b5050505050815260200160028201805461082990610e12565b80601f016020809104026020016040519081016040528092919081815260200182805461085590610e12565b80156108a05780601f10610877576101008083540402835291602001916108a0565b820191905f5260205f20905b81548152906001019060200180831161088357829003601f168201915b5050509183525050600391909101546001600160a01b038082166020840152600160a01b820463ffffffff166040840152600160c01b90910460ff161515606092830152908201519192501661090957604051637b15bab760e01b815260040160405180910390fd5b60a081015115155f0361092f57604051630df1558360e11b815260040160405180910390fd5b806080015163ffffffff1634101561095a5760405163fae8279160e01b815260040160405180910390fd5b5f61096b655af3107a400034611279565b90505f82606001516001600160a01b0316826040515f6040518083038185875af1925050503d805f81146109ba576040519150601f19603f3d011682016040523d82523d5f602084013e6109bf565b606091505b50509050806109e15760405163aa5dac7960e01b815260040160405180910390fd5b7f2932c43d58b2478ee67cbee1627b89d90a940f71384f0427810d9b52da65c880835f01518460600151338660800151604051610a5294939291906001600160401b039490941684526001600160a01b0392831660208501529116604083015263ffffffff16606082015260800190565b60405180910390a150505050565b335f818152600160205260409020600381015490916001600160a01b0390911614610a9e576040516329c4142760e21b815260040160405180910390fd5b6003810154600160c01b900460ff1615155f03610acf5760038101805460ff60c01b1916600160c01b179055610adf565b60038101805460ff60c01b191690555b80546003820154604080516001600160401b0390931683526001600160a01b0382166020840152600160c01b90910460ff161515908201527f8ecb835034750ed5158df06586f4cefffa740c42ae4bfa853234f57b27fa91b5906060016103a2565b335f818152600160205260409020600381015490916001600160a01b0390911614610b7f576040516329c4142760e21b815260040160405180910390fd5b60038101805463ffffffff8416600160a01b810263ffffffff60a01b19831681179093558354604080516001600160401b0390921682526001600160a01b0394851694909316939093176020840152908201527f13b9d57c679646284b3dfee584f989259a998c28aad0f94195df8d0cc99e3c159060600160405180910390a15050565b6001600160a01b0381168114610c17575f80fd5b50565b5f60208284031215610c2a575f80fd5b8135610c3581610c03565b9392505050565b5f81518084528060208401602086015e5f602082860101526020601f19601f83011685010191505092915050565b602081526001600160401b0382511660208201525f602083015160c06040840152610c9860e0840182610c3c565b90506040840151601f19848303016060850152610cb58282610c3c565b91505060018060a01b03606085015116608084015263ffffffff60808501511660a084015260a0840151151560c08401528091505092915050565b5f8083601f840112610d00575f80fd5b5081356001600160401b03811115610d16575f80fd5b602083019150836020828501011115610d2d575f80fd5b9250929050565b803563ffffffff81168114610d47575f80fd5b919050565b5f805f805f60608688031215610d60575f80fd5b85356001600160401b03811115610d75575f80fd5b610d8188828901610cf0565b90965094505060208601356001600160401b03811115610d9f575f80fd5b610dab88828901610cf0565b9094509250610dbe905060408701610d34565b90509295509295909350565b6001600160401b0381168114610c17575f80fd5b5f60208284031215610dee575f80fd5b8135610c3581610dca565b5f60208284031215610e09575f80fd5b610c3582610d34565b600181811c90821680610e2657607f821691505b602082108103610e4457634e487b7160e01b5f52602260045260245ffd5b50919050565b634e487b7160e01b5f52604160045260245ffd5b60405161012081016001600160401b0381118282101715610e8157610e81610e4a565b60405290565b8051610d4781610dca565b5f82601f830112610ea1575f80fd5b81516001600160401b03811115610eba57610eba610e4a565b604051601f8201601f19908116603f011681016001600160401b0381118282101715610ee857610ee8610e4a565b604052818152838201602001851015610eff575f80fd5b8160208501602083015e5f918101602001919091529392505050565b8051610d4781610c03565b805160038110610d47575f80fd5b5f60208284031215610f44575f80fd5b81516001600160401b03811115610f59575f80fd5b82016101208185031215610f6b575f80fd5b610f73610e5e565b610f7c82610e87565b815260208201516001600160401b03811115610f96575f80fd5b610fa286828501610e92565b60208301525060408201516001600160401b03811115610fc0575f80fd5b610fcc86828501610e92565b60408301525060608201516001600160401b03811115610fea575f80fd5b610ff686828501610e92565b60608301525060808201516001600160401b03811115611014575f80fd5b61102086828501610e92565b60808301525060a08201516001600160401b0381111561103e575f80fd5b61104a86828501610e92565b60a08301525060c08201516001600160401b03811115611068575f80fd5b61107486828501610e92565b60c08301525061108660e08301610f1b565b60e08201526110986101008301610f26565b610100820152949350505050565b601f8211156110ed57805f5260205f20601f840160051c810160208510156110cb5750805b601f840160051c820191505b818110156110ea575f81556001016110d7565b50505b505050565b81516001600160401b0381111561110b5761110b610e4a565b61111f816111198454610e12565b846110a6565b6020601f821160018114611151575f831561113a5750848201515b5f19600385901b1c1916600184901b1784556110ea565b5f84815260208120601f198516915b828110156111805787850151825560209485019460019092019101611160565b508482101561119d57868401515f19600387901b60f8161c191681555b50505050600190811b01905550565b81835281816020850137505f828201602090810191909152601f909101601f19169091010190565b6001600160401b038916815260c060208201525f6111f660c08301898b6111ac565b828103604084015261120981888a6111ac565b6001600160a01b03969096166060840152505063ffffffff929092166080830152151560a09091015295945050505050565b634e487b7160e01b5f52601160045260245ffd5b5f6001600160401b0382166001600160401b0381036112705761127061123b565b60010192915050565b8181038181111561128c5761128c61123b565b9291505056fea26469706673582212200e4a10a9f425cf9e2c0139cd514fed8749039c320795e6669b7473d3c7ef3a8364736f6c634300081a0033",
			"opcodes": "PUSH1 0x80 PUSH1 0x40 MSTORE PUSH1 0x3 DUP1 SLOAD PUSH1 0x1 PUSH1 0x1 PUSH1 0x40 SHL SUB NOT AND PUSH1 0x1 OR SWAP1 SSTORE CALLVALUE DUP1 ISZERO PUSH1 0x21 JUMPI PUSH0 DUP1 REVERT JUMPDEST POP PUSH1 0x40 MLOAD PUSH2 0x1381 CODESIZE SUB DUP1 PUSH2 0x1381 DUP4 CODECOPY DUP2 ADD PUSH1 0x40 DUP2 SWAP1 MSTORE PUSH1 0x3E SWAP2 PUSH1 0x81 JUMP JUMPDEST PUSH0 DUP1 SLOAD PUSH1 0x1 PUSH1 0x1 PUSH1 0xA0 SHL SUB NOT AND PUSH1 0x1 PUSH1 0x1 PUSH1 0xA0 SHL SUB SWAP3 SWAP1 SWAP3 AND SWAP2 SWAP1 SWAP2 OR SWAP1 SSTORE PUSH1 0x3 DUP1 SLOAD PUSH1 0x1 PUSH1 0x40 SHL PUSH1 0x1 PUSH1 0xE0 SHL SUB NOT AND CALLER PUSH9 0x10000000000000000 MUL OR SWAP1 SSTORE PUSH1 0xAC JUMP JUMPDEST PUSH0 PUSH1 0x20 DUP3 DUP5 SUB SLT ISZERO PUSH1 0x90 JUMPI PUSH0 DUP1 REVERT JUMPDEST DUP2 MLOAD PUSH1 0x1 PUSH1 0x1 PUSH1 0xA0 SHL SUB DUP2 AND DUP2 EQ PUSH1 0xA5 JUMPI PUSH0 DUP1 REVERT JUMPDEST SWAP4 SWAP3 POP POP POP JUMP JUMPDEST PUSH2 0x12C8 DUP1 PUSH2 0xB9 PUSH0 CODECOPY PUSH0 RETURN INVALID PUSH1 0x80 PUSH1 0x40 MSTORE PUSH1 0x4 CALLDATASIZE LT PUSH2 0x54 JUMPI PUSH0 CALLDATALOAD PUSH1 0xE0 SHR DUP1 PUSH4 0x11E34BD9 EQ PUSH2 0x58 JUMPI DUP1 PUSH4 0x476343EE EQ PUSH2 0x8D JUMPI DUP1 PUSH4 0x5E94A67F EQ PUSH2 0xA3 JUMPI DUP1 PUSH4 0x658F1B5B EQ PUSH2 0xC2 JUMPI DUP1 PUSH4 0x87BFCB04 EQ PUSH2 0xD5 JUMPI DUP1 PUSH4 0xBBDF32EB EQ PUSH2 0xE9 JUMPI JUMPDEST PUSH0 DUP1 REVERT JUMPDEST CALLVALUE DUP1 ISZERO PUSH2 0x63 JUMPI PUSH0 DUP1 REVERT JUMPDEST POP PUSH2 0x77 PUSH2 0x72 CALLDATASIZE PUSH1 0x4 PUSH2 0xC1A JUMP JUMPDEST PUSH2 0x108 JUMP JUMPDEST PUSH1 0x40 MLOAD PUSH2 0x84 SWAP2 SWAP1 PUSH2 0xC6A JUMP JUMPDEST PUSH1 0x40 MLOAD DUP1 SWAP2 SUB SWAP1 RETURN JUMPDEST CALLVALUE DUP1 ISZERO PUSH2 0x98 JUMPI PUSH0 DUP1 REVERT JUMPDEST POP PUSH2 0xA1 PUSH2 0x2CC JUMP JUMPDEST STOP JUMPDEST CALLVALUE DUP1 ISZERO PUSH2 0xAE JUMPI PUSH0 DUP1 REVERT JUMPDEST POP PUSH2 0xA1 PUSH2 0xBD CALLDATASIZE PUSH1 0x4 PUSH2 0xD4C JUMP JUMPDEST PUSH2 0x3AD JUMP JUMPDEST PUSH2 0xA1 PUSH2 0xD0 CALLDATASIZE PUSH1 0x4 PUSH2 0xDDE JUMP JUMPDEST PUSH2 0x726 JUMP JUMPDEST CALLVALUE DUP1 ISZERO PUSH2 0xE0 JUMPI PUSH0 DUP1 REVERT JUMPDEST POP PUSH2 0xA1 PUSH2 0xA60 JUMP JUMPDEST CALLVALUE DUP1 ISZERO PUSH2 0xF4 JUMPI PUSH0 DUP1 REVERT JUMPDEST POP PUSH2 0xA1 PUSH2 0x103 CALLDATASIZE PUSH1 0x4 PUSH2 0xDF9 JUMP JUMPDEST PUSH2 0xB41 JUMP JUMPDEST PUSH1 0x40 DUP1 MLOAD PUSH1 0xC0 DUP2 ADD DUP3 MSTORE PUSH0 DUP1 DUP3 MSTORE PUSH1 0x60 PUSH1 0x20 DUP4 ADD DUP2 SWAP1 MSTORE SWAP3 DUP3 ADD DUP4 SWAP1 MSTORE SWAP2 DUP2 ADD DUP3 SWAP1 MSTORE PUSH1 0x80 DUP2 ADD DUP3 SWAP1 MSTORE PUSH1 0xA0 DUP2 ADD SWAP2 SWAP1 SWAP2 MSTORE PUSH1 0x1 PUSH1 0x1 PUSH1 0xA0 SHL SUB DUP3 AND PUSH0 SWAP1 DUP2 MSTORE PUSH1 0x1 PUSH1 0x20 DUP2 DUP2 MSTORE PUSH1 0x40 SWAP3 DUP4 SWAP1 KECCAK256 DUP4 MLOAD PUSH1 0xC0 DUP2 ADD SWAP1 SWAP5 MSTORE DUP1 SLOAD PUSH1 0x1 PUSH1 0x1 PUSH1 0x40 SHL SUB AND DUP5 MSTORE SWAP2 DUP3 ADD DUP1 SLOAD SWAP2 DUP5 ADD SWAP2 PUSH2 0x17D SWAP1 PUSH2 0xE12 JUMP JUMPDEST DUP1 PUSH1 0x1F ADD PUSH1 0x20 DUP1 SWAP2 DIV MUL PUSH1 0x20 ADD PUSH1 0x40 MLOAD SWAP1 DUP2 ADD PUSH1 0x40 MSTORE DUP1 SWAP3 SWAP2 SWAP1 DUP2 DUP2 MSTORE PUSH1 0x20 ADD DUP3 DUP1 SLOAD PUSH2 0x1A9 SWAP1 PUSH2 0xE12 JUMP JUMPDEST DUP1 ISZERO PUSH2 0x1F4 JUMPI DUP1 PUSH1 0x1F LT PUSH2 0x1CB JUMPI PUSH2 0x100 DUP1 DUP4 SLOAD DIV MUL DUP4 MSTORE SWAP2 PUSH1 0x20 ADD SWAP2 PUSH2 0x1F4 JUMP JUMPDEST DUP3 ADD SWAP2 SWAP1 PUSH0 MSTORE PUSH1 0x20 PUSH0 KECCAK256 SWAP1 JUMPDEST DUP2 SLOAD DUP2 MSTORE SWAP1 PUSH1 0x1 ADD SWAP1 PUSH1 0x20 ADD DUP1 DUP4 GT PUSH2 0x1D7 JUMPI DUP3 SWAP1 SUB PUSH1 0x1F AND DUP3 ADD SWAP2 JUMPDEST POP POP POP POP POP DUP2 MSTORE PUSH1 0x20 ADD PUSH1 0x2 DUP3 ADD DUP1 SLOAD PUSH2 0x20D SWAP1 PUSH2 0xE12 JUMP JUMPDEST DUP1 PUSH1 0x1F ADD PUSH1 0x20 DUP1 SWAP2 DIV MUL PUSH1 0x20 ADD PUSH1 0x40 MLOAD SWAP1 DUP2 ADD PUSH1 0x40 MSTORE DUP1 SWAP3 SWAP2 SWAP1 DUP2 DUP2 MSTORE PUSH1 0x20 ADD DUP3 DUP1 SLOAD PUSH2 0x239 SWAP1 PUSH2 0xE12 JUMP JUMPDEST DUP1 ISZERO PUSH2 0x284 JUMPI DUP1 PUSH1 0x1F LT PUSH2 0x25B JUMPI PUSH2 0x100 DUP1 DUP4 SLOAD DIV MUL DUP4 MSTORE SWAP2 PUSH1 0x20 ADD SWAP2 PUSH2 0x284 JUMP JUMPDEST DUP3 ADD SWAP2 SWAP1 PUSH0 MSTORE PUSH1 0x20 PUSH0 KECCAK256 SWAP1 JUMPDEST DUP2 SLOAD DUP2 MSTORE SWAP1 PUSH1 0x1 ADD SWAP1 PUSH1 0x20 ADD DUP1 DUP4 GT PUSH2 0x267 JUMPI DUP3 SWAP1 SUB PUSH1 0x1F AND DUP3 ADD SWAP2 JUMPDEST POP POP POP SWAP2 DUP4 MSTORE POP POP PUSH1 0x3 SWAP2 SWAP1 SWAP2 ADD SLOAD PUSH1 0x1 PUSH1 0x1 PUSH1 0xA0 SHL SUB DUP2 AND PUSH1 0x20 DUP4 ADD MSTORE PUSH1 0x1 PUSH1 0xA0 SHL DUP2 DIV PUSH4 0xFFFFFFFF AND PUSH1 0x40 DUP4 ADD MSTORE PUSH1 0x1 PUSH1 0xC0 SHL SWAP1 DIV PUSH1 0xFF AND ISZERO ISZERO PUSH1 0x60 SWAP1 SWAP2 ADD MSTORE SWAP3 SWAP2 POP POP JUMP JUMPDEST PUSH1 0x3 SLOAD PUSH1 0x1 PUSH1 0x40 SHL SWAP1 DIV PUSH1 0x1 PUSH1 0x1 PUSH1 0xA0 SHL SUB AND CALLER EQ PUSH2 0x2FE JUMPI PUSH1 0x40 MLOAD PUSH4 0x60592B5D PUSH1 0xE1 SHL DUP2 MSTORE PUSH1 0x4 ADD PUSH1 0x40 MLOAD DUP1 SWAP2 SUB SWAP1 REVERT JUMPDEST PUSH1 0x3 SLOAD PUSH1 0x40 MLOAD PUSH0 SWAP2 PUSH1 0x1 PUSH1 0x40 SHL SWAP1 DIV PUSH1 0x1 PUSH1 0x1 PUSH1 0xA0 SHL SUB AND SWAP1 SELFBALANCE SWAP1 DUP4 DUP2 DUP2 DUP2 DUP6 DUP8 GAS CALL SWAP3 POP POP POP RETURNDATASIZE DUP1 PUSH0 DUP2 EQ PUSH2 0x34F JUMPI PUSH1 0x40 MLOAD SWAP2 POP PUSH1 0x1F NOT PUSH1 0x3F RETURNDATASIZE ADD AND DUP3 ADD PUSH1 0x40 MSTORE RETURNDATASIZE DUP3 MSTORE RETURNDATASIZE PUSH0 PUSH1 0x20 DUP5 ADD RETURNDATACOPY PUSH2 0x354 JUMP JUMPDEST PUSH1 0x60 SWAP2 POP JUMPDEST POP POP SWAP1 POP DUP1 PUSH2 0x376 JUMPI PUSH1 0x40 MLOAD PUSH4 0x1E5B5DB5 PUSH1 0xE3 SHL DUP2 MSTORE PUSH1 0x4 ADD PUSH1 0x40 MLOAD DUP1 SWAP2 SUB SWAP1 REVERT JUMPDEST PUSH1 0x40 MLOAD CALLER DUP2 MSTORE PUSH32 0xCFD79812BBB20990FFF601F865BAAEFE46E8BCF55C71F8F23278D104B9DEF366 SWAP1 PUSH1 0x20 ADD JUMPDEST PUSH1 0x40 MLOAD DUP1 SWAP2 SUB SWAP1 LOG1 POP JUMP JUMPDEST PUSH0 DUP1 SLOAD PUSH1 0x40 MLOAD PUSH4 0xF64E30B PUSH1 0xE4 SHL DUP2 MSTORE CALLER PUSH1 0x4 DUP3 ADD MSTORE PUSH1 0x1 PUSH1 0x1 PUSH1 0xA0 SHL SUB SWAP1 SWAP2 AND SWAP1 PUSH4 0xF64E30B0 SWAP1 PUSH1 0x24 ADD PUSH0 PUSH1 0x40 MLOAD DUP1 DUP4 SUB DUP2 DUP7 GAS STATICCALL ISZERO DUP1 ISZERO PUSH2 0x3F2 JUMPI RETURNDATASIZE PUSH0 DUP1 RETURNDATACOPY RETURNDATASIZE PUSH0 REVERT JUMPDEST POP POP POP POP PUSH1 0x40 MLOAD RETURNDATASIZE PUSH0 DUP3 RETURNDATACOPY PUSH1 0x1F RETURNDATASIZE SWAP1 DUP2 ADD PUSH1 0x1F NOT AND DUP3 ADD PUSH1 0x40 MSTORE PUSH2 0x419 SWAP2 SWAP1 DUP2 ADD SWAP1 PUSH2 0xF34 JUMP JUMPDEST PUSH1 0xE0 DUP2 ADD MLOAD SWAP1 SWAP2 POP PUSH1 0x1 PUSH1 0x1 PUSH1 0xA0 SHL SUB AND PUSH2 0x446 JUMPI PUSH1 0x40 MLOAD PUSH3 0x19179D PUSH1 0xE7 SHL DUP2 MSTORE PUSH1 0x4 ADD PUSH1 0x40 MLOAD DUP1 SWAP2 SUB SWAP1 REVERT JUMPDEST CALLER PUSH0 SWAP1 DUP2 MSTORE PUSH1 0x1 PUSH1 0x20 MSTORE PUSH1 0x40 SWAP1 KECCAK256 PUSH1 0x3 ADD SLOAD PUSH1 0x1 PUSH1 0x1 PUSH1 0xA0 SHL SUB AND ISZERO PUSH2 0x47F JUMPI PUSH1 0x40 MLOAD PUSH4 0x4EA50217 PUSH1 0xE0 SHL DUP2 MSTORE PUSH1 0x4 ADD PUSH1 0x40 MLOAD DUP1 SWAP2 SUB SWAP1 REVERT JUMPDEST PUSH1 0x40 DUP1 MLOAD PUSH1 0xC0 DUP2 ADD DUP3 MSTORE PUSH1 0x3 SLOAD PUSH1 0x1 PUSH1 0x1 PUSH1 0x40 SHL SUB AND DUP2 MSTORE DUP2 MLOAD PUSH1 0x20 PUSH1 0x1F DUP10 ADD DUP2 SWAP1 DIV DUP2 MUL DUP3 ADD DUP2 ADD SWAP1 SWAP4 MSTORE DUP8 DUP2 MSTORE PUSH0 SWAP3 DUP1 DUP4 ADD SWAP2 SWAP1 DUP11 SWAP1 DUP11 SWAP1 DUP2 SWAP1 DUP5 ADD DUP4 DUP3 DUP1 DUP3 DUP5 CALLDATACOPY PUSH0 SWAP3 ADD SWAP2 SWAP1 SWAP2 MSTORE POP POP POP SWAP1 DUP3 MSTORE POP PUSH1 0x40 DUP1 MLOAD PUSH1 0x20 PUSH1 0x1F DUP10 ADD DUP2 SWAP1 DIV DUP2 MUL DUP3 ADD DUP2 ADD SWAP1 SWAP3 MSTORE DUP8 DUP2 MSTORE SWAP2 DUP2 ADD SWAP2 SWAP1 DUP9 SWAP1 DUP9 SWAP1 DUP2 SWAP1 DUP5 ADD DUP4 DUP3 DUP1 DUP3 DUP5 CALLDATACOPY PUSH0 SWAP3 ADD DUP3 SWAP1 MSTORE POP SWAP4 DUP6 MSTORE POP POP CALLER PUSH1 0x20 DUP1 DUP6 ADD DUP3 SWAP1 MSTORE PUSH4 0xFFFFFFFF DUP10 AND PUSH1 0x40 DUP1 DUP8 ADD SWAP2 SWAP1 SWAP2 MSTORE PUSH1 0x1 PUSH1 0x60 SWAP1 SWAP7 ADD DUP7 SWAP1 MSTORE SWAP2 DUP5 MSTORE DUP5 DUP2 MSTORE SWAP3 KECCAK256 DUP5 MLOAD DUP2 SLOAD PUSH8 0xFFFFFFFFFFFFFFFF NOT AND PUSH1 0x1 PUSH1 0x1 PUSH1 0x40 SHL SUB SWAP1 SWAP2 AND OR DUP2 SSTORE SWAP2 DUP5 ADD MLOAD SWAP4 SWAP5 POP DUP5 SWAP4 SWAP2 SWAP3 DUP4 ADD SWAP2 PUSH2 0x56A SWAP2 POP DUP3 PUSH2 0x10F2 JUMP JUMPDEST POP PUSH1 0x40 DUP3 ADD MLOAD PUSH1 0x2 DUP3 ADD SWAP1 PUSH2 0x57F SWAP1 DUP3 PUSH2 0x10F2 JUMP JUMPDEST POP PUSH1 0x60 DUP3 ADD MLOAD PUSH1 0x3 SWAP2 DUP3 ADD DUP1 SLOAD PUSH1 0x80 DUP6 ADD MLOAD PUSH1 0xA0 SWAP1 SWAP6 ADD MLOAD ISZERO ISZERO PUSH1 0x1 PUSH1 0xC0 SHL MUL PUSH1 0xFF PUSH1 0xC0 SHL NOT PUSH4 0xFFFFFFFF SWAP1 SWAP7 AND PUSH1 0x1 PUSH1 0xA0 SHL MUL PUSH1 0x1 PUSH1 0x1 PUSH1 0xC0 SHL SUB NOT SWAP1 SWAP3 AND PUSH1 0x1 PUSH1 0x1 PUSH1 0xA0 SHL SUB SWAP1 SWAP5 AND SWAP4 SWAP1 SWAP4 OR OR SWAP4 SWAP1 SWAP4 AND OR SWAP1 SWAP2 SSTORE SLOAD PUSH1 0x1 PUSH1 0x1 PUSH1 0x40 SHL SUB SWAP1 DUP2 AND PUSH0 SWAP1 DUP2 MSTORE PUSH1 0x2 PUSH1 0x20 SWAP1 DUP2 MSTORE PUSH1 0x40 SWAP1 SWAP2 KECCAK256 DUP4 MLOAD DUP2 SLOAD SWAP4 AND PUSH8 0xFFFFFFFFFFFFFFFF NOT SWAP1 SWAP4 AND SWAP3 SWAP1 SWAP3 OR DUP3 SSTORE DUP3 ADD MLOAD DUP3 SWAP2 SWAP1 PUSH1 0x1 DUP3 ADD SWAP1 PUSH2 0x621 SWAP1 DUP3 PUSH2 0x10F2 JUMP JUMPDEST POP PUSH1 0x40 DUP3 ADD MLOAD PUSH1 0x2 DUP3 ADD SWAP1 PUSH2 0x636 SWAP1 DUP3 PUSH2 0x10F2 JUMP JUMPDEST POP PUSH1 0x60 DUP3 ADD MLOAD PUSH1 0x3 SWAP2 DUP3 ADD DUP1 SLOAD PUSH1 0x80 DUP6 ADD MLOAD PUSH1 0xA0 SWAP1 SWAP6 ADD MLOAD ISZERO ISZERO PUSH1 0x1 PUSH1 0xC0 SHL MUL PUSH1 0xFF PUSH1 0xC0 SHL NOT PUSH4 0xFFFFFFFF SWAP1 SWAP7 AND PUSH1 0x1 PUSH1 0xA0 SHL MUL PUSH1 0x1 PUSH1 0x1 PUSH1 0xC0 SHL SUB NOT SWAP1 SWAP3 AND PUSH1 0x1 PUSH1 0x1 PUSH1 0xA0 SHL SUB SWAP1 SWAP5 AND SWAP4 SWAP1 SWAP4 OR OR SWAP4 SWAP1 SWAP4 AND OR SWAP1 SWAP2 SSTORE SLOAD PUSH1 0x40 MLOAD PUSH32 0x68FAAE89D914C394316C516D04D42CF4125C504BDB1E64C21CBCB5B57D2B4038 SWAP2 PUSH2 0x6D8 SWAP2 PUSH1 0x1 PUSH1 0x1 PUSH1 0x40 SHL SUB SWAP1 SWAP2 AND SWAP1 DUP11 SWAP1 DUP11 SWAP1 DUP11 SWAP1 DUP11 SWAP1 CALLER SWAP1 DUP12 SWAP1 PUSH1 0x1 SWAP1 PUSH2 0x11D4 JUMP JUMPDEST PUSH1 0x40 MLOAD DUP1 SWAP2 SUB SWAP1 LOG1 PUSH1 0x3 DUP1 SLOAD PUSH1 0x1 PUSH1 0x1 PUSH1 0x40 SHL SUB AND SWAP1 PUSH0 PUSH2 0x6F8 DUP4 PUSH2 0x124F JUMP JUMPDEST SWAP2 SWAP1 PUSH2 0x100 EXP DUP2 SLOAD DUP2 PUSH1 0x1 PUSH1 0x1 PUSH1 0x40 SHL SUB MUL NOT AND SWAP1 DUP4 PUSH1 0x1 PUSH1 0x1 PUSH1 0x40 SHL SUB AND MUL OR SWAP1 SSTORE POP POP POP POP POP POP POP POP POP JUMP JUMPDEST PUSH1 0x3 SLOAD PUSH1 0x1 PUSH1 0x1 PUSH1 0x40 SHL SUB SWAP1 DUP2 AND SWAP1 DUP3 AND GT ISZERO PUSH2 0x756 JUMPI PUSH1 0x40 MLOAD PUSH4 0x26647943 PUSH1 0xE0 SHL DUP2 MSTORE PUSH1 0x4 ADD PUSH1 0x40 MLOAD DUP1 SWAP2 SUB SWAP1 REVERT JUMPDEST PUSH1 0x1 PUSH1 0x1 PUSH1 0x40 SHL SUB DUP1 DUP3 AND PUSH0 SWAP1 DUP2 MSTORE PUSH1 0x2 PUSH1 0x20 SWAP1 DUP2 MSTORE PUSH1 0x40 DUP1 DUP4 KECCAK256 DUP2 MLOAD PUSH1 0xC0 DUP2 ADD SWAP1 SWAP3 MSTORE DUP1 SLOAD SWAP1 SWAP5 AND DUP2 MSTORE PUSH1 0x1 DUP5 ADD DUP1 SLOAD SWAP4 SWAP5 SWAP2 SWAP4 SWAP2 SWAP3 DUP5 ADD SWAP2 PUSH2 0x799 SWAP1 PUSH2 0xE12 JUMP JUMPDEST DUP1 PUSH1 0x1F ADD PUSH1 0x20 DUP1 SWAP2 DIV MUL PUSH1 0x20 ADD PUSH1 0x40 MLOAD SWAP1 DUP2 ADD PUSH1 0x40 MSTORE DUP1 SWAP3 SWAP2 SWAP1 DUP2 DUP2 MSTORE PUSH1 0x20 ADD DUP3 DUP1 SLOAD PUSH2 0x7C5 SWAP1 PUSH2 0xE12 JUMP JUMPDEST DUP1 ISZERO PUSH2 0x810 JUMPI DUP1 PUSH1 0x1F LT PUSH2 0x7E7 JUMPI PUSH2 0x100 DUP1 DUP4 SLOAD DIV MUL DUP4 MSTORE SWAP2 PUSH1 0x20 ADD SWAP2 PUSH2 0x810 JUMP JUMPDEST DUP3 ADD SWAP2 SWAP1 PUSH0 MSTORE PUSH1 0x20 PUSH0 KECCAK256 SWAP1 JUMPDEST DUP2 SLOAD DUP2 MSTORE SWAP1 PUSH1 0x1 ADD SWAP1 PUSH1 0x20 ADD DUP1 DUP4 GT PUSH2 0x7F3 JUMPI DUP3 SWAP1 SUB PUSH1 0x1F AND DUP3 ADD SWAP2 JUMPDEST POP POP POP POP POP DUP2 MSTORE PUSH1 0x20 ADD PUSH1 0x2 DUP3 ADD DUP1 SLOAD PUSH2 0x829 SWAP1 PUSH2 0xE12 JUMP JUMPDEST DUP1 PUSH1 0x1F ADD PUSH1 0x20 DUP1 SWAP2 DIV MUL PUSH1 0x20 ADD PUSH1 0x40 MLOAD SWAP1 DUP2 ADD PUSH1 0x40 MSTORE DUP1 SWAP3 SWAP2 SWAP1 DUP2 DUP2 MSTORE PUSH1 0x20 ADD DUP3 DUP1 SLOAD PUSH2 0x855 SWAP1 PUSH2 0xE12 JUMP JUMPDEST DUP1 ISZERO PUSH2 0x8A0 JUMPI DUP1 PUSH1 0x1F LT PUSH2 0x877 JUMPI PUSH2 0x100 DUP1 DUP4 SLOAD DIV MUL DUP4 MSTORE SWAP2 PUSH1 0x20 ADD SWAP2 PUSH2 0x8A0 JUMP JUMPDEST DUP3 ADD SWAP2 SWAP1 PUSH0 MSTORE PUSH1 0x20 PUSH0 KECCAK256 SWAP1 JUMPDEST DUP2 SLOAD DUP2 MSTORE SWAP1 PUSH1 0x1 ADD SWAP1 PUSH1 0x20 ADD DUP1 DUP4 GT PUSH2 0x883 JUMPI DUP3 SWAP1 SUB PUSH1 0x1F AND DUP3 ADD SWAP2 JUMPDEST POP POP POP SWAP2 DUP4 MSTORE POP POP PUSH1 0x3 SWAP2 SWAP1 SWAP2 ADD SLOAD PUSH1 0x1 PUSH1 0x1 PUSH1 0xA0 SHL SUB DUP1 DUP3 AND PUSH1 0x20 DUP5 ADD MSTORE PUSH1 0x1 PUSH1 0xA0 SHL DUP3 DIV PUSH4 0xFFFFFFFF AND PUSH1 0x40 DUP5 ADD MSTORE PUSH1 0x1 PUSH1 0xC0 SHL SWAP1 SWAP2 DIV PUSH1 0xFF AND ISZERO ISZERO PUSH1 0x60 SWAP3 DUP4 ADD MSTORE SWAP1 DUP3 ADD MLOAD SWAP2 SWAP3 POP AND PUSH2 0x909 JUMPI PUSH1 0x40 MLOAD PUSH4 0x7B15BAB7 PUSH1 0xE0 SHL DUP2 MSTORE PUSH1 0x4 ADD PUSH1 0x40 MLOAD DUP1 SWAP2 SUB SWAP1 REVERT JUMPDEST PUSH1 0xA0 DUP2 ADD MLOAD ISZERO ISZERO PUSH0 SUB PUSH2 0x92F JUMPI PUSH1 0x40 MLOAD PUSH4 0xDF15583 PUSH1 0xE1 SHL DUP2 MSTORE PUSH1 0x4 ADD PUSH1 0x40 MLOAD DUP1 SWAP2 SUB SWAP1 REVERT JUMPDEST DUP1 PUSH1 0x80 ADD MLOAD PUSH4 0xFFFFFFFF AND CALLVALUE LT ISZERO PUSH2 0x95A JUMPI PUSH1 0x40 MLOAD PUSH4 0xFAE82791 PUSH1 0xE0 SHL DUP2 MSTORE PUSH1 0x4 ADD PUSH1 0x40 MLOAD DUP1 SWAP2 SUB SWAP1 REVERT JUMPDEST PUSH0 PUSH2 0x96B PUSH6 0x5AF3107A4000 CALLVALUE PUSH2 0x1279 JUMP JUMPDEST SWAP1 POP PUSH0 DUP3 PUSH1 0x60 ADD MLOAD PUSH1 0x1 PUSH1 0x1 PUSH1 0xA0 SHL SUB AND DUP3 PUSH1 0x40 MLOAD PUSH0 PUSH1 0x40 MLOAD DUP1 DUP4 SUB DUP2 DUP6 DUP8 GAS CALL SWAP3 POP POP POP RETURNDATASIZE DUP1 PUSH0 DUP2 EQ PUSH2 0x9BA JUMPI PUSH1 0x40 MLOAD SWAP2 POP PUSH1 0x1F NOT PUSH1 0x3F RETURNDATASIZE ADD AND DUP3 ADD PUSH1 0x40 MSTORE RETURNDATASIZE DUP3 MSTORE RETURNDATASIZE PUSH0 PUSH1 0x20 DUP5 ADD RETURNDATACOPY PUSH2 0x9BF JUMP JUMPDEST PUSH1 0x60 SWAP2 POP JUMPDEST POP POP SWAP1 POP DUP1 PUSH2 0x9E1 JUMPI PUSH1 0x40 MLOAD PUSH4 0xAA5DAC79 PUSH1 0xE0 SHL DUP2 MSTORE PUSH1 0x4 ADD PUSH1 0x40 MLOAD DUP1 SWAP2 SUB SWAP1 REVERT JUMPDEST PUSH32 0x2932C43D58B2478EE67CBEE1627B89D90A940F71384F0427810D9B52DA65C880 DUP4 PUSH0 ADD MLOAD DUP5 PUSH1 0x60 ADD MLOAD CALLER DUP7 PUSH1 0x80 ADD MLOAD PUSH1 0x40 MLOAD PUSH2 0xA52 SWAP5 SWAP4 SWAP3 SWAP2 SWAP1 PUSH1 0x1 PUSH1 0x1 PUSH1 0x40 SHL SUB SWAP5 SWAP1 SWAP5 AND DUP5 MSTORE PUSH1 0x1 PUSH1 0x1 PUSH1 0xA0 SHL SUB SWAP3 DUP4 AND PUSH1 0x20 DUP6 ADD MSTORE SWAP2 AND PUSH1 0x40 DUP4 ADD MSTORE PUSH4 0xFFFFFFFF AND PUSH1 0x60 DUP3 ADD MSTORE PUSH1 0x80 ADD SWAP1 JUMP JUMPDEST PUSH1 0x40 MLOAD DUP1 SWAP2 SUB SWAP1 LOG1 POP POP POP POP JUMP JUMPDEST CALLER PUSH0 DUP2 DUP2 MSTORE PUSH1 0x1 PUSH1 0x20 MSTORE PUSH1 0x40 SWAP1 KECCAK256 PUSH1 0x3 DUP2 ADD SLOAD SWAP1 SWAP2 PUSH1 0x1 PUSH1 0x1 PUSH1 0xA0 SHL SUB SWAP1 SWAP2 AND EQ PUSH2 0xA9E JUMPI PUSH1 0x40 MLOAD PUSH4 0x29C41427 PUSH1 0xE2 SHL DUP2 MSTORE PUSH1 0x4 ADD PUSH1 0x40 MLOAD DUP1 SWAP2 SUB SWAP1 REVERT JUMPDEST PUSH1 0x3 DUP2 ADD SLOAD PUSH1 0x1 PUSH1 0xC0 SHL SWAP1 DIV PUSH1 0xFF AND ISZERO ISZERO PUSH0 SUB PUSH2 0xACF JUMPI PUSH1 0x3 DUP2 ADD DUP1 SLOAD PUSH1 0xFF PUSH1 0xC0 SHL NOT AND PUSH1 0x1 PUSH1 0xC0 SHL OR SWAP1 SSTORE PUSH2 0xADF JUMP JUMPDEST PUSH1 0x3 DUP2 ADD DUP1 SLOAD PUSH1 0xFF PUSH1 0xC0 SHL NOT AND SWAP1 SSTORE JUMPDEST DUP1 SLOAD PUSH1 0x3 DUP3 ADD SLOAD PUSH1 0x40 DUP1 MLOAD PUSH1 0x1 PUSH1 0x1 PUSH1 0x40 SHL SUB SWAP1 SWAP4 AND DUP4 MSTORE PUSH1 0x1 PUSH1 0x1 PUSH1 0xA0 SHL SUB DUP3 AND PUSH1 0x20 DUP5 ADD MSTORE PUSH1 0x1 PUSH1 0xC0 SHL SWAP1 SWAP2 DIV PUSH1 0xFF AND ISZERO ISZERO SWAP1 DUP3 ADD MSTORE PUSH32 0x8ECB835034750ED5158DF06586F4CEFFFA740C42AE4BFA853234F57B27FA91B5 SWAP1 PUSH1 0x60 ADD PUSH2 0x3A2 JUMP JUMPDEST CALLER PUSH0 DUP2 DUP2 MSTORE PUSH1 0x1 PUSH1 0x20 MSTORE PUSH1 0x40 SWAP1 KECCAK256 PUSH1 0x3 DUP2 ADD SLOAD SWAP1 SWAP2 PUSH1 0x1 PUSH1 0x1 PUSH1 0xA0 SHL SUB SWAP1 SWAP2 AND EQ PUSH2 0xB7F JUMPI PUSH1 0x40 MLOAD PUSH4 0x29C41427 PUSH1 0xE2 SHL DUP2 MSTORE PUSH1 0x4 ADD PUSH1 0x40 MLOAD DUP1 SWAP2 SUB SWAP1 REVERT JUMPDEST PUSH1 0x3 DUP2 ADD DUP1 SLOAD PUSH4 0xFFFFFFFF DUP5 AND PUSH1 0x1 PUSH1 0xA0 SHL DUP2 MUL PUSH4 0xFFFFFFFF PUSH1 0xA0 SHL NOT DUP4 AND DUP2 OR SWAP1 SWAP4 SSTORE DUP4 SLOAD PUSH1 0x40 DUP1 MLOAD PUSH1 0x1 PUSH1 0x1 PUSH1 0x40 SHL SUB SWAP1 SWAP3 AND DUP3 MSTORE PUSH1 0x1 PUSH1 0x1 PUSH1 0xA0 SHL SUB SWAP5 DUP6 AND SWAP5 SWAP1 SWAP4 AND SWAP4 SWAP1 SWAP4 OR PUSH1 0x20 DUP5 ADD MSTORE SWAP1 DUP3 ADD MSTORE PUSH32 0x13B9D57C679646284B3DFEE584F989259A998C28AAD0F94195DF8D0CC99E3C15 SWAP1 PUSH1 0x60 ADD PUSH1 0x40 MLOAD DUP1 SWAP2 SUB SWAP1 LOG1 POP POP JUMP JUMPDEST PUSH1 0x1 PUSH1 0x1 PUSH1 0xA0 SHL SUB DUP2 AND DUP2 EQ PUSH2 0xC17 JUMPI PUSH0 DUP1 REVERT JUMPDEST POP JUMP JUMPDEST PUSH0 PUSH1 0x20 DUP3 DUP5 SUB SLT ISZERO PUSH2 0xC2A JUMPI PUSH0 DUP1 REVERT JUMPDEST DUP2 CALLDATALOAD PUSH2 0xC35 DUP2 PUSH2 0xC03 JUMP JUMPDEST SWAP4 SWAP3 POP POP POP JUMP JUMPDEST PUSH0 DUP2 MLOAD DUP1 DUP5 MSTORE DUP1 PUSH1 0x20 DUP5 ADD PUSH1 0x20 DUP7 ADD MCOPY PUSH0 PUSH1 0x20 DUP3 DUP7 ADD ADD MSTORE PUSH1 0x20 PUSH1 0x1F NOT PUSH1 0x1F DUP4 ADD AND DUP6 ADD ADD SWAP2 POP POP SWAP3 SWAP2 POP POP JUMP JUMPDEST PUSH1 0x20 DUP2 MSTORE PUSH1 0x1 PUSH1 0x1 PUSH1 0x40 SHL SUB DUP3 MLOAD AND PUSH1 0x20 DUP3 ADD MSTORE PUSH0 PUSH1 0x20 DUP4 ADD MLOAD PUSH1 0xC0 PUSH1 0x40 DUP5 ADD MSTORE PUSH2 0xC98 PUSH1 0xE0 DUP5 ADD DUP3 PUSH2 0xC3C JUMP JUMPDEST SWAP1 POP PUSH1 0x40 DUP5 ADD MLOAD PUSH1 0x1F NOT DUP5 DUP4 SUB ADD PUSH1 0x60 DUP6 ADD MSTORE PUSH2 0xCB5 DUP3 DUP3 PUSH2 0xC3C JUMP JUMPDEST SWAP2 POP POP PUSH1 0x1 DUP1 PUSH1 0xA0 SHL SUB PUSH1 0x60 DUP6 ADD MLOAD AND PUSH1 0x80 DUP5 ADD MSTORE PUSH4 0xFFFFFFFF PUSH1 0x80 DUP6 ADD MLOAD AND PUSH1 0xA0 DUP5 ADD MSTORE PUSH1 0xA0 DUP5 ADD MLOAD ISZERO ISZERO PUSH1 0xC0 DUP5 ADD MSTORE DUP1 SWAP2 POP POP SWAP3 SWAP2 POP POP JUMP JUMPDEST PUSH0 DUP1 DUP4 PUSH1 0x1F DUP5 ADD SLT PUSH2 0xD00 JUMPI PUSH0 DUP1 REVERT JUMPDEST POP DUP2 CALLDATALOAD PUSH1 0x1 PUSH1 0x1 PUSH1 0x40 SHL SUB DUP2 GT ISZERO PUSH2 0xD16 JUMPI PUSH0 DUP1 REVERT JUMPDEST PUSH1 0x20 DUP4 ADD SWAP2 POP DUP4 PUSH1 0x20 DUP3 DUP6 ADD ADD GT ISZERO PUSH2 0xD2D JUMPI PUSH0 DUP1 REVERT JUMPDEST SWAP3 POP SWAP3 SWAP1 POP JUMP JUMPDEST DUP1 CALLDATALOAD PUSH4 0xFFFFFFFF DUP2 AND DUP2 EQ PUSH2 0xD47 JUMPI PUSH0 DUP1 REVERT JUMPDEST SWAP2 SWAP1 POP JUMP JUMPDEST PUSH0 DUP1 PUSH0 DUP1 PUSH0 PUSH1 0x60 DUP7 DUP9 SUB SLT ISZERO PUSH2 0xD60 JUMPI PUSH0 DUP1 REVERT JUMPDEST DUP6 CALLDATALOAD PUSH1 0x1 PUSH1 0x1 PUSH1 0x40 SHL SUB DUP2 GT ISZERO PUSH2 0xD75 JUMPI PUSH0 DUP1 REVERT JUMPDEST PUSH2 0xD81 DUP9 DUP3 DUP10 ADD PUSH2 0xCF0 JUMP JUMPDEST SWAP1 SWAP7 POP SWAP5 POP POP PUSH1 0x20 DUP7 ADD CALLDATALOAD PUSH1 0x1 PUSH1 0x1 PUSH1 0x40 SHL SUB DUP2 GT ISZERO PUSH2 0xD9F JUMPI PUSH0 DUP1 REVERT JUMPDEST PUSH2 0xDAB DUP9 DUP3 DUP10 ADD PUSH2 0xCF0 JUMP JUMPDEST SWAP1 SWAP5 POP SWAP3 POP PUSH2 0xDBE SWAP1 POP PUSH1 0x40 DUP8 ADD PUSH2 0xD34 JUMP JUMPDEST SWAP1 POP SWAP3 SWAP6 POP SWAP3 SWAP6 SWAP1 SWAP4 POP JUMP JUMPDEST PUSH1 0x1 PUSH1 0x1 PUSH1 0x40 SHL SUB DUP2 AND DUP2 EQ PUSH2 0xC17 JUMPI PUSH0 DUP1 REVERT JUMPDEST PUSH0 PUSH1 0x20 DUP3 DUP5 SUB SLT ISZERO PUSH2 0xDEE JUMPI PUSH0 DUP1 REVERT JUMPDEST DUP2 CALLDATALOAD PUSH2 0xC35 DUP2 PUSH2 0xDCA JUMP JUMPDEST PUSH0 PUSH1 0x20 DUP3 DUP5 SUB SLT ISZERO PUSH2 0xE09 JUMPI PUSH0 DUP1 REVERT JUMPDEST PUSH2 0xC35 DUP3 PUSH2 0xD34 JUMP JUMPDEST PUSH1 0x1 DUP2 DUP2 SHR SWAP1 DUP3 AND DUP1 PUSH2 0xE26 JUMPI PUSH1 0x7F DUP3 AND SWAP2 POP JUMPDEST PUSH1 0x20 DUP3 LT DUP2 SUB PUSH2 0xE44 JUMPI PUSH4 0x4E487B71 PUSH1 0xE0 SHL PUSH0 MSTORE PUSH1 0x22 PUSH1 0x4 MSTORE PUSH1 0x24 PUSH0 REVERT JUMPDEST POP SWAP2 SWAP1 POP JUMP JUMPDEST PUSH4 0x4E487B71 PUSH1 0xE0 SHL PUSH0 MSTORE PUSH1 0x41 PUSH1 0x4 MSTORE PUSH1 0x24 PUSH0 REVERT JUMPDEST PUSH1 0x40 MLOAD PUSH2 0x120 DUP2 ADD PUSH1 0x1 PUSH1 0x1 PUSH1 0x40 SHL SUB DUP2 GT DUP3 DUP3 LT OR ISZERO PUSH2 0xE81 JUMPI PUSH2 0xE81 PUSH2 0xE4A JUMP JUMPDEST PUSH1 0x40 MSTORE SWAP1 JUMP JUMPDEST DUP1 MLOAD PUSH2 0xD47 DUP2 PUSH2 0xDCA JUMP JUMPDEST PUSH0 DUP3 PUSH1 0x1F DUP4 ADD SLT PUSH2 0xEA1 JUMPI PUSH0 DUP1 REVERT JUMPDEST DUP2 MLOAD PUSH1 0x1 PUSH1 0x1 PUSH1 0x40 SHL SUB DUP2 GT ISZERO PUSH2 0xEBA JUMPI PUSH2 0xEBA PUSH2 0xE4A JUMP JUMPDEST PUSH1 0x40 MLOAD PUSH1 0x1F DUP3 ADD PUSH1 0x1F NOT SWAP1 DUP2 AND PUSH1 0x3F ADD AND DUP2 ADD PUSH1 0x1 PUSH1 0x1 PUSH1 0x40 SHL SUB DUP2 GT DUP3 DUP3 LT OR ISZERO PUSH2 0xEE8 JUMPI PUSH2 0xEE8 PUSH2 0xE4A JUMP JUMPDEST PUSH1 0x40 MSTORE DUP2 DUP2 MSTORE DUP4 DUP3 ADD PUSH1 0x20 ADD DUP6 LT ISZERO PUSH2 0xEFF JUMPI PUSH0 DUP1 REVERT JUMPDEST DUP2 PUSH1 0x20 DUP6 ADD PUSH1 0x20 DUP4 ADD MCOPY PUSH0 SWAP2 DUP2 ADD PUSH1 0x20 ADD SWAP2 SWAP1 SWAP2 MSTORE SWAP4 SWAP3 POP POP POP JUMP JUMPDEST DUP1 MLOAD PUSH2 0xD47 DUP2 PUSH2 0xC03 JUMP JUMPDEST DUP1 MLOAD PUSH1 0x3 DUP2 LT PUSH2 0xD47 JUMPI PUSH0 DUP1 REVERT JUMPDEST PUSH0 PUSH1 0x20 DUP3 DUP5 SUB SLT ISZERO PUSH2 0xF44 JUMPI PUSH0 DUP1 REVERT JUMPDEST DUP2 MLOAD PUSH1 0x1 PUSH1 0x1 PUSH1 0x40 SHL SUB DUP2 GT ISZERO PUSH2 0xF59 JUMPI PUSH0 DUP1 REVERT JUMPDEST DUP3 ADD PUSH2 0x120 DUP2 DUP6 SUB SLT ISZERO PUSH2 0xF6B JUMPI PUSH0 DUP1 REVERT JUMPDEST PUSH2 0xF73 PUSH2 0xE5E JUMP JUMPDEST PUSH2 0xF7C DUP3 PUSH2 0xE87 JUMP JUMPDEST DUP2 MSTORE PUSH1 0x20 DUP3 ADD MLOAD PUSH1 0x1 PUSH1 0x1 PUSH1 0x40 SHL SUB DUP2 GT ISZERO PUSH2 0xF96 JUMPI PUSH0 DUP1 REVERT JUMPDEST PUSH2 0xFA2 DUP7 DUP3 DUP6 ADD PUSH2 0xE92 JUMP JUMPDEST PUSH1 0x20 DUP4 ADD MSTORE POP PUSH1 0x40 DUP3 ADD MLOAD PUSH1 0x1 PUSH1 0x1 PUSH1 0x40 SHL SUB DUP2 GT ISZERO PUSH2 0xFC0 JUMPI PUSH0 DUP1 REVERT JUMPDEST PUSH2 0xFCC DUP7 DUP3 DUP6 ADD PUSH2 0xE92 JUMP JUMPDEST PUSH1 0x40 DUP4 ADD MSTORE POP PUSH1 0x60 DUP3 ADD MLOAD PUSH1 0x1 PUSH1 0x1 PUSH1 0x40 SHL SUB DUP2 GT ISZERO PUSH2 0xFEA JUMPI PUSH0 DUP1 REVERT JUMPDEST PUSH2 0xFF6 DUP7 DUP3 DUP6 ADD PUSH2 0xE92 JUMP JUMPDEST PUSH1 0x60 DUP4 ADD MSTORE POP PUSH1 0x80 DUP3 ADD MLOAD PUSH1 0x1 PUSH1 0x1 PUSH1 0x40 SHL SUB DUP2 GT ISZERO PUSH2 0x1014 JUMPI PUSH0 DUP1 REVERT JUMPDEST PUSH2 0x1020 DUP7 DUP3 DUP6 ADD PUSH2 0xE92 JUMP JUMPDEST PUSH1 0x80 DUP4 ADD MSTORE POP PUSH1 0xA0 DUP3 ADD MLOAD PUSH1 0x1 PUSH1 0x1 PUSH1 0x40 SHL SUB DUP2 GT ISZERO PUSH2 0x103E JUMPI PUSH0 DUP1 REVERT JUMPDEST PUSH2 0x104A DUP7 DUP3 DUP6 ADD PUSH2 0xE92 JUMP JUMPDEST PUSH1 0xA0 DUP4 ADD MSTORE POP PUSH1 0xC0 DUP3 ADD MLOAD PUSH1 0x1 PUSH1 0x1 PUSH1 0x40 SHL SUB DUP2 GT ISZERO PUSH2 0x1068 JUMPI PUSH0 DUP1 REVERT JUMPDEST PUSH2 0x1074 DUP7 DUP3 DUP6 ADD PUSH2 0xE92 JUMP JUMPDEST PUSH1 0xC0 DUP4 ADD MSTORE POP PUSH2 0x1086 PUSH1 0xE0 DUP4 ADD PUSH2 0xF1B JUMP JUMPDEST PUSH1 0xE0 DUP3 ADD MSTORE PUSH2 0x1098 PUSH2 0x100 DUP4 ADD PUSH2 0xF26 JUMP JUMPDEST PUSH2 0x100 DUP3 ADD MSTORE SWAP5 SWAP4 POP POP POP POP JUMP JUMPDEST PUSH1 0x1F DUP3 GT ISZERO PUSH2 0x10ED JUMPI DUP1 PUSH0 MSTORE PUSH1 0x20 PUSH0 KECCAK256 PUSH1 0x1F DUP5 ADD PUSH1 0x5 SHR DUP2 ADD PUSH1 0x20 DUP6 LT ISZERO PUSH2 0x10CB JUMPI POP DUP1 JUMPDEST PUSH1 0x1F DUP5 ADD PUSH1 0x5 SHR DUP3 ADD SWAP2 POP JUMPDEST DUP2 DUP2 LT ISZERO PUSH2 0x10EA JUMPI PUSH0 DUP2 SSTORE PUSH1 0x1 ADD PUSH2 0x10D7 JUMP JUMPDEST POP POP JUMPDEST POP POP POP JUMP JUMPDEST DUP2 MLOAD PUSH1 0x1 PUSH1 0x1 PUSH1 0x40 SHL SUB DUP2 GT ISZERO PUSH2 0x110B JUMPI PUSH2 0x110B PUSH2 0xE4A JUMP JUMPDEST PUSH2 0x111F DUP2 PUSH2 0x1119 DUP5 SLOAD PUSH2 0xE12 JUMP JUMPDEST DUP5 PUSH2 0x10A6 JUMP JUMPDEST PUSH1 0x20 PUSH1 0x1F DUP3 GT PUSH1 0x1 DUP2 EQ PUSH2 0x1151 JUMPI PUSH0 DUP4 ISZERO PUSH2 0x113A JUMPI POP DUP5 DUP3 ADD MLOAD JUMPDEST PUSH0 NOT PUSH1 0x3 DUP6 SWAP1 SHL SHR NOT AND PUSH1 0x1 DUP5 SWAP1 SHL OR DUP5 SSTORE PUSH2 0x10EA JUMP JUMPDEST PUSH0 DUP5 DUP2 MSTORE PUSH1 0x20 DUP2 KECCAK256 PUSH1 0x1F NOT DUP6 AND SWAP2 JUMPDEST DUP3 DUP2 LT ISZERO PUSH2 0x1180 JUMPI DUP8 DUP6 ADD MLOAD DUP3 SSTORE PUSH1 0x20 SWAP5 DUP6 ADD SWAP5 PUSH1 0x1 SWAP1 SWAP3 ADD SWAP2 ADD PUSH2 0x1160 JUMP JUMPDEST POP DUP5 DUP3 LT ISZERO PUSH2 0x119D JUMPI DUP7 DUP5 ADD MLOAD PUSH0 NOT PUSH1 0x3 DUP8 SWAP1 SHL PUSH1 0xF8 AND SHR NOT AND DUP2 SSTORE JUMPDEST POP POP POP POP PUSH1 0x1 SWAP1 DUP2 SHL ADD SWAP1 SSTORE POP JUMP JUMPDEST DUP2 DUP4 MSTORE DUP2 DUP2 PUSH1 0x20 DUP6 ADD CALLDATACOPY POP PUSH0 DUP3 DUP3 ADD PUSH1 0x20 SWAP1 DUP2 ADD SWAP2 SWAP1 SWAP2 MSTORE PUSH1 0x1F SWAP1 SWAP2 ADD PUSH1 0x1F NOT AND SWAP1 SWAP2 ADD ADD SWAP1 JUMP JUMPDEST PUSH1 0x1 PUSH1 0x1 PUSH1 0x40 SHL SUB DUP10 AND DUP2 MSTORE PUSH1 0xC0 PUSH1 0x20 DUP3 ADD MSTORE PUSH0 PUSH2 0x11F6 PUSH1 0xC0 DUP4 ADD DUP10 DUP12 PUSH2 0x11AC JUMP JUMPDEST DUP3 DUP2 SUB PUSH1 0x40 DUP5 ADD MSTORE PUSH2 0x1209 DUP2 DUP9 DUP11 PUSH2 0x11AC JUMP JUMPDEST PUSH1 0x1 PUSH1 0x1 PUSH1 0xA0 SHL SUB SWAP7 SWAP1 SWAP7 AND PUSH1 0x60 DUP5 ADD MSTORE POP POP PUSH4 0xFFFFFFFF SWAP3 SWAP1 SWAP3 AND PUSH1 0x80 DUP4 ADD MSTORE ISZERO ISZERO PUSH1 0xA0 SWAP1 SWAP2 ADD MSTORE SWAP6 SWAP5 POP POP POP POP POP JUMP JUMPDEST PUSH4 0x4E487B71 PUSH1 0xE0 SHL PUSH0 MSTORE PUSH1 0x11 PUSH1 0x4 MSTORE PUSH1 0x24 PUSH0 REVERT JUMPDEST PUSH0 PUSH1 0x1 PUSH1 0x1 PUSH1 0x40 SHL SUB DUP3 AND PUSH1 0x1 PUSH1 0x1 PUSH1 0x40 SHL SUB DUP2 SUB PUSH2 0x1270 JUMPI PUSH2 0x1270 PUSH2 0x123B JUMP JUMPDEST PUSH1 0x1 ADD SWAP3 SWAP2 POP POP JUMP JUMPDEST DUP2 DUP2 SUB DUP2 DUP2 GT ISZERO PUSH2 0x128C JUMPI PUSH2 0x128C PUSH2 0x123B JUMP JUMPDEST SWAP3 SWAP2 POP POP JUMP INVALID LOG2 PUSH5 0x6970667358 0x22 SLT KECCAK256 0xE BLOBBASEFEE LT 0xA9 DELEGATECALL 0x25 0xCF SWAP15 0x2C ADD CODECOPY 0xCD MLOAD 0x4F 0xED DUP8 BLOBHASH SUB SWAP13 ORIGIN SMOD SWAP6 0xE6 PUSH7 0x9B7473D3C7EF3A DUP4 PUSH5 0x736F6C6343 STOP ADDMOD BYTE STOP CALLER "
		},
		"gasEstimates": {
			"creation": {
				"codeDepositCost": "961600",
				"executionCost": "infinite",
				"totalCost": "infinite"
			},
			"external": {
				"changeRate(uint32)": "30648",
				"createConsultant(string,string,uint32)": "infinite",
				"getConsultant(address)": "infinite",
				"payConsultant(uint64)": "infinite",
				"toggleAviability()": "34747",
				"withdrawFees()": "infinite"
			}
		},
		"methodIdentifiers": {
			"changeRate(uint32)": "bbdf32eb",
			"createConsultant(string,string,uint32)": "5e94a67f",
			"getConsultant(address)": "11e34bd9",
			"payConsultant(uint64)": "658f1b5b",
			"toggleAviability()": "87bfcb04",
			"withdrawFees()": "476343ee"
		}
	},
	"abi": [
		{
			"inputs": [
				{
					"internalType": "address",
					"name": "_IDAddy",
					"type": "address"
				}
			],
			"stateMutability": "nonpayable",
			"type": "constructor"
		},
		{
			"inputs": [],
			"name": "CONSULTANT_DOESNT_EXISIT",
			"type": "error"
		},
		{
			"inputs": [],
			"name": "CONSULTANT_UNAVAILABLE",
			"type": "error"
		},
		{
			"inputs": [],
			"name": "CONSULUTED_ALREADY_CREATED",
			"type": "error"
		},
		{
			"inputs": [],
			"name": "INVALID_AMOUNT",
			"type": "error"
		},
		{
			"inputs": [],
			"name": "INVALID_CONSULTANT_ID",
			"type": "error"
		},
		{
			"inputs": [],
			"name": "NOT_OWNER_OF_MARKETPLACE",
			"type": "error"
		},
		{
			"inputs": [],
			"name": "NOT_OWNER_OF_PROFILE",
			"type": "error"
		},
		{
			"inputs": [],
			"name": "NO_ID_CREATED",
			"type": "error"
		},
		{
			"inputs": [],
			"name": "PAYMENT_TO_CONSULTANT_FAILED",
			"type": "error"
		},
		{
			"inputs": [],
			"name": "PAYMENT_TO_OWNER_FAILED",
			"type": "error"
		},
		{
			"anonymous": false,
			"inputs": [
				{
					"indexed": false,
					"internalType": "uint256",
					"name": "id",
					"type": "uint256"
				},
				{
					"indexed": false,
					"internalType": "address",
					"name": "consultantAddress",
					"type": "address"
				},
				{
					"indexed": false,
					"internalType": "bool",
					"name": "aviability",
					"type": "bool"
				}
			],
			"name": "AviabilityChanged",
			"type": "event"
		},
		{
			"anonymous": false,
			"inputs": [
				{
					"indexed": false,
					"internalType": "uint64",
					"name": "id",
					"type": "uint64"
				},
				{
					"indexed": false,
					"internalType": "string",
					"name": "fullName",
					"type": "string"
				},
				{
					"indexed": false,
					"internalType": "string",
					"name": "description",
					"type": "string"
				},
				{
					"indexed": false,
					"internalType": "address",
					"name": "userAddy",
					"type": "address"
				},
				{
					"indexed": false,
					"internalType": "uint32",
					"name": "monthlyRate",
					"type": "uint32"
				},
				{
					"indexed": false,
					"internalType": "bool",
					"name": "available",
					"type": "bool"
				}
			],
			"name": "ConsultantCreated",
			"type": "event"
		},
		{
			"anonymous": false,
			"inputs": [
				{
					"indexed": false,
					"internalType": "uint256",
					"name": "id",
					"type": "uint256"
				},
				{
					"indexed": false,
					"internalType": "address",
					"name": "consultantAddress",
					"type": "address"
				},
				{
					"indexed": false,
					"internalType": "address",
					"name": "buyerAddress",
					"type": "address"
				},
				{
					"indexed": false,
					"internalType": "uint32",
					"name": "payment",
					"type": "uint32"
				}
			],
			"name": "ConsultantPaid",
			"type": "event"
		},
		{
			"anonymous": false,
			"inputs": [
				{
					"indexed": false,
					"internalType": "uint256",
					"name": "id",
					"type": "uint256"
				},
				{
					"indexed": false,
					"internalType": "address",
					"name": "consultantAddress",
					"type": "address"
				},
				{
					"indexed": false,
					"internalType": "uint64",
					"name": "newRate",
					"type": "uint64"
				}
			],
			"name": "MonthlyRateChanged",
			"type": "event"
		},
		{
			"anonymous": false,
			"inputs": [
				{
					"indexed": false,
					"internalType": "address",
					"name": "owner",
					"type": "address"
				}
			],
			"name": "OwnerWithdrawFees",
			"type": "event"
		},
		{
			"inputs": [
				{
					"internalType": "uint32",
					"name": "_newRate",
					"type": "uint32"
				}
			],
			"name": "changeRate",
			"outputs": [],
			"stateMutability": "nonpayable",
			"type": "function"
		},
		{
			"inputs": [
				{
					"internalType": "string",
					"name": "_fullName",
					"type": "string"
				},
				{
					"internalType": "string",
					"name": "_description",
					"type": "string"
				},
				{
					"internalType": "uint32",
					"name": "_monthly_rate",
					"type": "uint32"
				}
			],
			"name": "createConsultant",
			"outputs": [],
			"stateMutability": "nonpayable",
			"type": "function"
		},
		{
			"inputs": [
				{
					"internalType": "address",
					"name": "_userAddy",
					"type": "address"
				}
			],
			"name": "getConsultant",
			"outputs": [
				{
					"components": [
						{
							"internalType": "uint64",
							"name": "id",
							"type": "uint64"
						},
						{
							"internalType": "string",
							"name": "full_name",
							"type": "string"
						},
						{
							"internalType": "string",
							"name": "description",
							"type": "string"
						},
						{
							"internalType": "address",
							"name": "user_addy",
							"type": "address"
						},
						{
							"internalType": "uint32",
							"name": "monthly_rate",
							"type": "uint32"
						},
						{
							"internalType": "bool",
							"name": "available",
							"type": "bool"
						}
					],
					"internalType": "struct Marketplace.Consultant",
					"name": "",
					"type": "tuple"
				}
			],
			"stateMutability": "view",
			"type": "function"
		},
		{
			"inputs": [
				{
					"internalType": "uint64",
					"name": "_chosenConsultant",
					"type": "uint64"
				}
			],
			"name": "payConsultant",
			"outputs": [],
			"stateMutability": "payable",
			"type": "function"
		},
		{
			"inputs": [],
			"name": "toggleAviability",
			"outputs": [],
			"stateMutability": "nonpayable",
			"type": "function"
		},
		{
			"inputs": [],
			"name": "withdrawFees",
			"outputs": [],
			"stateMutability": "nonpayable",
			"type": "function"
		}
	]
}